{
  "transactions": [
    {
      "hash": "0x3b1674bfad992f3d43e59fd563dd17a90c8322b528e508cd8290a229d2e503a4",
      "transactionType": "CALL",
      "contractName": null,
      "contractAddress": "0xe1071ad02d88fbfb1f6998e4aff28b641cbb7e24",
      "function": "propose(address[],uint256[],bytes[],string)",
      "arguments": [
        "[0x9cB7741E7f8661173E3ef215DE82A563C8EFfB0D]",
        "[0]",
        "[0x64d62353000000000000000000000000000000000000000000000000000000000002a300]",
        "Demo Proposal: reconfirm timelock min-delay (no-op, for subgraph indexing)"
      ],
      "transaction": {
        "from": "0xaa8b631eed549211c6fbaaddd738d77e089659c1",
        "to": "0xe1071ad02d88fbfb1f6998e4aff28b641cbb7e24",
        "gas": "0x22c76",
        "value": "0x0",
        "input": "0x7d5e81e2000000000000000000000000000000000000000000000000000000000000008000000000000000000000000000000000000000000000000000000000000000c0000000000000000000000000000000000000000000000000000000000000010000000000000000000000000000000000000000000000000000000000000001a000000000000000000000000000000000000000000000000000000000000000010000000000000000000000009cb7741e7f8661173e3ef215de82a563c8effb0d0000000000000000000000000000000000000000000000000000000000000001000000000000000000000000000000000000000000000000000000000000000000000000000000000000000000000000000000000000000000000000000000010000000000000000000000000000000000000000000000000000000000000020000000000000000000000000000000000000000000000000000000000000002464d62353000000000000000000000000000000000000000000000000000000000002a30000000000000000000000000000000000000000000000000000000000000000000000000000000000000000000000000000000000000000000000004a44656d6f2050726f706f73616c3a207265636f6e6669726d2074696d656c6f636b206d696e2d64656c617920286e6f2d6f702c20666f7220737562677261706820696e646578696e672900000000000000000000000000000000000000000000",
        "nonce": "0x61",
        "chainId": "0xaa36a7"
      },
      "additionalContracts": [],
      "isFixedGasLimit": false
    }
  ],
  "receipts": [
    {
      "type": "0x2",
      "status": "0x1",
      "cumulativeGasUsed": "0x133ebc7",
      "logs": [
        {
          "address": "0xe1071ad02d88fbfb1f6998e4aff28b641cbb7e24",
          "topics": [
            "0x7d84a6263ae0d98d3329bd7b46bb4e8d6f98cd35a7adb45c274c8b7fd5ebd5e0"
          ],
          "data": "0xc26cdb29642060ef433ca679894f14c46b4201b03e3f64e147eefc412595f6da000000000000000000000000aa8b631eed549211c6fbaaddd738d77e089659c10000000000000000000000000000000000000000000000000000000000000120000000000000000000000000000000000000000000000000000000000000016000000000000000000000000000000000000000000000000000000000000001a000000000000000000000000000000000000000000000000000000000000002000000000000000000000000000000000000000000000000000000000000a6754b0000000000000000000000000000000000000000000000000000000000ab128b00000000000000000000000000000000000000000000000000000000000002a000000000000000000000000000000000000000000000000000000000000000010000000000000000000000009cb7741e7f8661173e3ef215de82a563c8effb0d0000000000000000000000000000000000000000000000000000000000000001000000000000000000000000000000000000000000000000000000000000000000000000000000000000000000000000000000000000000000000000000000010000000000000000000000000000000000000000000000000000000000000020000000000000000000000000000000000000000000000000000000000000000000000000000000000000000000000000000000000000000000000000000000010000000000000000000000000000000000000000000000000000000000000020000000000000000000000000000000000000000000000000000000000000002464d62353000000000000000000000000000000000000000000000000000000000002a30000000000000000000000000000000000000000000000000000000000000000000000000000000000000000000000000000000000000000000000004a44656d6f2050726f706f73616c3a207265636f6e6669726d2074696d656c6f636b206d696e2d64656c617920286e6f2d6f702c20666f7220737562677261706820696e646578696e672900000000000000000000000000000000000000000000",
          "blockHash": "0x7c002fd44280de95969b35e3d73f0e3b9e899cda95e568e1906eff15403e3adb",
          "blockNumber": "0xa5cc8b",
          "blockTimestamp": "0x6a0916a0",
          "transactionHash": "0x3b1674bfad992f3d43e59fd563dd17a90c8322b528e508cd8290a229d2e503a4",
          "transactionIndex": "0x86",
          "logIndex": "0x243",
          "removed": false
        }
      ],
      "logsBloom": "0x00000000000000000000000008000000000000000000000000000000000000000000000000000000000000000000000000000000000000000000000000000000000000000002000000000000000000000020000000000000000000000000000000000040000000000000000000000000000000000000000000000000000000000000000000000000000000000000000000000000000000000000000000000000080000000000000000000000000000000000000000000000000000000000000200000000000000000000000000000000000000000000000000000000000000000000000000000000000000000000000000000000000000000000000000000000",
      "transactionHash": "0x3b1674bfad992f3d43e59fd563dd17a90c8322b528e508cd8290a229d2e503a4",
      "transactionIndex": "0x86",
      "blockHash": "0x7c002fd44280de95969b35e3d73f0e3b9e899cda95e568e1906eff15403e3adb",
      "blockNumber": "0xa5cc8b",
      "gasUsed": "0x192df",
      "effectiveGasPrice": "0xfe5e4",
      "from": "0xaa8b631eed549211c6fbaaddd738d77e089659c1",
      "to": "0xe1071ad02d88fbfb1f6998e4aff28b641cbb7e24",
      "contractAddress": null
    }
  ],
  "libraries": [],
  "pending": [],
  "returns": {},
  "timestamp": 1778980512827,
  "chain": 11155111,
  "commit": "21bd238"
}